S013000042616E6B5F6C6F636B65722E73726563B6
S11300000C942A000C9447000C9447000C9447006D
S11300100C9447000C9447000C9447000C94470040
S11300200C9447000C9447000C9447000C94470030
S11300300C9447000C9447000C9447000C94470020
S11300400C9447000C9447000C9447000C94470010
S11300500C94470011241FBECFE5D8E0DEBFCDBF0E
S113006011E0A0E6B0E0E0EEF1E102C005900D92EF
S1130070AC34B107D9F721E0ACE4B1E001C01D9282
S1130080A135B207E1F70E9407070C94EE080C941F
S11300900000823419F118F4813439F0089583345E
S11300A0B1F1843409F44CC00895413059F42BB3B0
S11300B081E090E002C0880F991F6A95E2F7822BD5
S11300C08BBB08952BB381E090E002C0880F991F89
S11300D06A95E2F7809582238BBB0895413059F4E9
S11300E028B381E090E002C0880F991F6A95E2F777
S11300F0822B88BB089528B381E090E002C0880F6A
S1130100991F6A95E2F78095822388BB0895413050
S113011059F425B381E090E002C0880F991F6A95D5
S1130120E2F7822B85BB089525B381E090E002C0FD
S1130130880F991F6A95E2F78095822385BB0895FD
S1130140413059F422B381E090E002C0880F991F36
S11301506A95E2F7822B82BB089522B381E090E096
S113016002C0880F991F6A95E2F78095822382BBAB
S11301700895823419F118F4813439F008958334E0
S1130180B1F1843409F44CC00895413059F42AB3D0
S113019081E090E002C0880F991F6A95E2F7822BF4
S11301A08ABB08952AB381E090E002C0880F991FAA
S11301B06A95E2F7809582238ABB0895413059F409
S11301C027B381E090E002C0880F991F6A95E2F797
S11301D0822B87BB089527B381E090E002C0880F8B
S11301E0991F6A95E2F78095822387BB0895413071
S11301F059F424B381E090E002C0880F991F6A95F6
S1130200E2F7822B84BB089524B381E090E002C01E
S1130210880F991F6A95E2F78095822384BB08951D
S1130220413059F421B381E090E002C0880F991F56
S11302306A95E2F7822B81BB089521B381E090E0B7
S113024002C0880F991F6A95E2F78095822381BBCB
S11302500895823491F018F4813431F029C0833444
S1130260A9F08434E1F024C089B390E002C09595EC
S113027087956A95E2F78170089586B390E002C08D
S1130280959587956A95E2F78170089583B390E018
S113029002C0959587956A95E2F78170089580B3B9
S11302A090E002C0959587956A95E2F7817008956C
S11302B080E008951F93CF93DF93C82FD62F122F7A
S11302C00E94B900412F6D2F8C2F0E944900DF91AD
S11302D0CF911F910895E199FECF9FBB8EBB6DBB5B
S11302E0E29AE19A0895E199FECF9FBB8EBBE09A12
S11302F08DB390E0089541E064E083E40E944900F6
S113030041E065E083E40E94490041E066E083E463
S11303100E94490041E067E083E40E944900089597
S113032021E040E060E083E40E945A0121E040E0E3
S113033061E083E40E945A0121E040E062E083E44A
S11303400E945A0121E040E063E083E40E945A01E4
S113035020E041E064E083E40E945A0120E041E0AF
S113036065E083E40E945A0120E041E066E083E412
S11303700E945A0120E041E067E083E40E945A01B0
S113038008950E947B0140E064E083E40E944900F8
S113039041E065E083E40E94490041E066E083E4D3
S11303A00E94490041E067E083E40E94490060E064
S11303B083E40E942901811108C060E083E40E9463
S11303C029018823D1F38AE2089561E083E40E943D
S11303D02901811108C061E083E40E942901882376
S11303E0D1F381E3089562E083E40E94290181113D
S11303F008C062E083E40E9429018823D1F384E3E6
S1130400089563E083E40E942901811108C063E038
S113041083E40E9429018823D1F387E308950E948D
S11304207B0141E064E083E40E94490040E065E030
S113043083E40E94490041E066E083E40E944900AD
S113044041E067E083E40E94490060E083E40E94A5
S11304502901811108C060E083E40E9429018823F6
S1130460D1F380E3089561E083E40E9429018111BE
S113047008C061E083E40E9429018823D1F382E368
S1130480089562E083E40E942901811108C062E0BA
S113049083E40E9429018823D1F385E3089563E06E
S11304A083E40E942901811108C063E083E40E946F
S11304B029018823D1F388E308950E947B0141E058
S11304C064E083E40E94490041E065E083E40E9423
S11304D0490040E066E083E40E94490041E067E0AF
S11304E083E40E94490060E083E40E9429018111B1
S11304F008C060E083E40E9429018823D1F383E2E9
S1130500089561E083E40E942901811108C061E03B
S113051083E40E9429018823D1F383E3089562E0F0
S113052083E40E942901811108C062E083E40E94EF
S113053029018823D1F386E3089563E083E40E94CC
S11305402901811108C063E083E40E942901882302
S1130550D1F389E308950E947B0141E064E083E4E0
S11305600E94490041E065E083E40E94490041E0C3
S113057066E083E40E94490040E067E083E40E946F
S1130580490060E083E40E942901811108C060E011
S113059083E40E9429018823D1F384E4089561E06F
S11305A083E40E942901811108C061E083E40E9470
S11305B029018823D1F383E4089562E083E40E944F
S11305C02901811108C062E083E40E942901882383
S11305D0D1F382E4089563E083E40E942901811148
S11305E0D0CE63E083E40E9429018823D1F381E41F
S11305F0089541E061E081E40E9449008FE99FE0B1
S11306000197F1F700C0000040E061E081E40E943E
S113061049000895CF93C82F40E063E081E40E942D
S1130620490040E062E081E40E94490080914D016C
S11306308130E1F5C4FB442740F964E082E40E9480
S11306404900C5FB442740F965E082E40E94490063
S1130650C6FB442740F966E082E40E9449004C2F1F
S1130660441F4427441F67E082E40E9449000E941B
S1130670F9024C2F417064E082E40E944900C1FBFE
S1130680442740F965E082E40E944900C2FB442704
S113069040F966E082E40E944900C3FB442740F924
S11306A067E082E40E9449000E94F90280914C01B3
S11306B08130D1F54C2F417060E082E40E94490002
S11306C0C1FB442740F961E082E40E944900C2FB77
S11306D0442740F962E082E40E944900C3FB4427B6
S11306E040F963E082E40E944900C4FB442740F9D6
S11306F064E082E40E944900C5FB442740F965E0B8
S113070082E40E944900C6FB442740F966E082E483
S11307100E9449004C2F441F4427441F67E082E491
S11307200E9449000E94F902CF91089581E00E943D
S11307300A030895CF93DF93EC0120E041E062E0E7
S113074081E40E945A0120E041E063E081E40E94D8
S11307505A0120E041E061E081E40E945A0188816D
S11307608130A9F510924D0180934C0120E041E0C5
S113077060E082E40E945A0120E041E061E082E40A
S11307800E945A0120E041E062E082E40E945A01A2
S113079020E041E063E082E40E945A0120E041E06D
S11307A064E082E40E945A0120E041E065E082E4D2
S11307B00E945A0120E041E066E082E40E945A016E
S11307C020E041E067E082E40E945A011DC081E01C
S11307D080934D0110924C0120E041E064E082E4FA
S11307E00E945A0120E041E065E082E40E945A013F
S11307F020E041E066E082E40E945A0120E041E00A
S113080067E082E40E945A018FE39CE90197F1F7C3
S113081000C0000080E30E940A038FE097E2019782
S1130820F1F700C0000082E30E940A038FE99FE011
S11308300197F1F700C000008881813011F090E247
S113084001C090E38981813011F080E001C088E02B
S1130850892B9A81913011F090E001C094E0892BAA
S11308600E940A038FE99FE00197F1F700C000009E
S11308708B81813011F098E001C09CE08D81813042
S113088011F020E001C022E081E03C81313009F028
S113089080E0892B822B0E940A038FE99FE0019755
S11308A0F1F700C000008E81813011F026E001C014
S11308B024E081E09F81913009F080E0822B0E9446
S11308C00A038FE99FE00197F1F700C000000E943E
S11308D09603DF91CF910895CF93C82F40E063E052
S11308E081E40E94490041E062E081E40E94490001
S11308F080914D018130E1F5C4FB442740F964E067
S113090082E40E944900C5FB442740F965E082E483
S11309100E944900C6FB442740F966E082E40E9435
S113092049004C2F441F4427441F67E082E40E947F
S113093049000E94F9024C2F417064E082E40E9455
S11309404900C1FB442740F965E082E40E94490064
S1130950C2FB442740F966E082E40E944900C3FBDD
S1130960442740F967E082E40E9449000E94F902AA
S113097080914C018130D1F54C2F417060E082E4CC
S11309800E944900C1FB442740F961E082E40E94CF
S11309904900C2FB442740F962E082E40E94490016
S11309A0C3FB442740F963E082E40E944900C4FB8E
S11309B0442740F964E082E40E944900C5FB4427CF
S11309C040F965E082E40E944900C6FB442740F9EF
S11309D066E082E40E9449004C2F441F4427441FD0
S11309E067E082E40E9449000E94F902CF910895D1
S11309F0813031F060F0823029F0833029F006C074
S1130A00605C05C0605F03C0605B01C060E0862F6E
S1130A1080680E940A0308950F931F93CF93FC01EB
S1130A208081882359F08F01C0E00E946C04CF5F5D
S1130A30F801EC0FF11D80818111F7CFCF911F9147
S1130A400F910895CF93DF93EA010E94F804CE0139
S1130A500E940C05DF91CF9108950E94960340E611
S1130A6050E061E080E00E94220508950E94960310
S1130A704FE650E062E080E00E9422054DE750E03E
S1130A8060E082E00E9422054CE850E060E083E0F0
S1130A900E9422050895CF93DF93CDB7DEB7289740
S1130AA00FB6F894DEBF0FBECDBF0E9496034AE98D
S1130AB050E062E080E00E94220544EA50E063E0F6
S1130AC081E00E942205CE0101960E943507CE01E5
S1130AD005960E943507BE016F5F7F4FCE010596D4
S1130AE00E94E508019779F44DEA50E060E080E067
S1130AF00E9422054AEB50E061E081E00E94220559
S1130B000E944B0523C083E40E94A9082FEF89E6C5
S1130B1098E1215080409040E1F700C00000CE01F0
S1130B2001960E94AD080E94960344EC50E060E0F8
S1130B3080E00E9422052FEF89E698E12150804051
S1130B409040E1F700C000000E94960328960FB67B
S1130B50F894DEBF0FBECDBFDF91CF910895CF9340
S1130B6080914F01811116C08DE40E94A9080E9452
S1130B70960345ED50E064E082E00E9422052FEFE9
S1130B8089E698E1215080409040E1F700C00000E0
S1130B900E94960380914E0181111BC00E9496030E
S1130BA04FE650E060E080E00E9422054DED50E009
S1130BB060E081E00E94220549EE50E060E082E0BE
S1130BC00E9422054CE850E060E083E00E94220588
S1130BD002C00E9436050E94C101C82F0E949603DC
S1130BE081E080934F01C234F9F0C334B9F1C134C8
S1130BF0D9F581E40E94A90848EF50E060E081E063
S1130C000E9422052FEF89E698E121508040904010
S1130C10E1F700C000000E9496030E94360581E0BF
S1130C2080934E0180E03CC00E94960382E40E94BF
S1130C30A90845E051E062E081E00E9422052FEF1F
S1130C408EE994E2215080409040E1F700C000001A
S1130C5010924E0110924F0181E022C00E944B0578
S1130C600E94AF0580E01CC042E151E062E080E0F8
S1130C700E9422054EE151E063E081E00E942205DA
S1130C802FEF8EE994E2215080409040E1F700C0BC
S1130C9000000E9496030E9436050E94AF0580E082
S1130CA0CF9108950F931F93CF93DF9300D000D07B
S1130CB0CDB7DEB78DE090E00E94730180359105D9
S1130CC061F4109250010E942D05CE0101960E94FC
S1130CD05707813009F077C071C081E080935001DB
S1130CE00E94960345E251E061E080E00E94220503
S1130CF046E650E062E081E00E942205CE010196C2
S1130D000E94350760E58DE090E00E946B0156C0BB
S1130D100E94960341E351E063E081E00E942205D2
S1130D2044EA50E065E082E00E9422052FEF89E664
S1130D3098E1215080409040E1F700C000000E94FB
S1130D402D051F5F133099F587E50E94A90803E07C
S1130D5047E351E064E082E00E9422052FEF84E340
S1130D609CE0215080409040E1F700C000000E94C8
S1130D7096032FEF81EE94E0215080409040E1F7FC
S1130D8000C00000015021F74FE351E061E080E032
S1130D900E9422052FEF89E698E12150804090407F
S1130DA0E1F700C000000E9496030E942D05CE01C9
S1130DB001960E945707813009F0AACF0E94AF051F
S1130DC08823E1F31BC00E94960341E351E063E0F2
S1130DD081E00E94220544EA50E065E082E00E943E
S1130DE022052FEF89E698E1215080409040E1F7F9
S1130DF000C000000E942D0511E0D9CF0F900F9084
S1130E000F900F90DF91CF911F910F910895CF9381
S1130E10DF93CDB7DEB762970FB6F894DEBF0FBE8F
S1130E20CDBFCE0101962AE0FC0111922A95E9F783
S1130E3023E02D8322E0298720E835E23B832A83BF
S1130E4011E018870E949D07CE010B9628E0FC0153
S1130E5011922A95E9F71C871D871E870E949A0321
S1130E600E9490010E945206FDCFEF92FF920F93D1
S1130E701F93CF937C018C01C0E00E94C101F80153
S1130E8081938F01F5E3FA95F1F700004AE451E00C
S1130E906C2F83E00E942205CF5FC43071F7F70105
S1130EA01482CF911F910F91FF90EF900895CF93EB
S1130EB0DF93EC010E943507CE010E94AD082FEFAD
S1130EC081EE94E0215080409040E1F700C00000A2
S1130ED00E94BF0891E0813309F090E0892FDF91EF
S1130EE0CF910895823091F028F4882349F081301D
S1130EF051F00895843071F058F0853069F0089508
S1130F00579856980895579A569A0895579A089557
S1130F1057980895569A089556980895813039F04F
S1130F2018F0823039F00895539A54980895549AD9
S1130F3053980895549A539A08950F931F93CF93F7
S1130F40DF93EC0109811A8180B5806880BD8881B6
S1130F50882319F0813029F008C080B58F7B80BDCB
S1130F6007C080B5806480BD03C080B58F7B80BD21
S1130F708C818230D9F028F4882341F0813071F0DB
S1130F802DC08330D9F0843009F128C080B58D7F1D
S1130F9080BD80B58B7F80BD529827C080B58260AC
S1130FA080BD80B58B7F80BD52981FC080B58D7F7A
S1130FB080BD80B5846080BD529817C080B58260C2
S1130FC080BD80B5846080BD52980FC080B58260BA
S1130FD080BD80B5846080BD529A07C080B58260B0
S1130FE080BD80B5846080BD52988E81882319F0BD
S1130FF0813029F007C080B5877F80BD03C080B5EC
S1131000886080BD8D81813059F018F0823079F08C
S113101014C080B58F7E80BD80B58F7D80BD0DC02E
S113102080B58F7E80BD80B5806280BD06C080B5EE
S1131030806180BD80B5806280BD8F81882319F076
S1131040813029F007C080B58E7F80BD03C080B594
S1131050816080BD88850E948E078B810E94720703
S11310608985882319F0813039F149C0C801A0E08D
S1131070B0E0880F991FAA1FBB1F880F991FAA1FD2
S1131080BB1F880F991FAA1FBB1F880F991FAA1F78
S1131090BB1F9C01AD01215031094109510960E098
S11310A072E18AE790E00E94C30829B9BB27A52F03
S11310B0942F832F80BD48C0599AC801A0E0B0E0A6
S11310C0880F991FAA1FBB1F880F991FAA1FBB1F38
S11310D0880F991FAA1FBB1F9C01AD012150310924
S11310E04109510960E072E18AE790E00E94C30877
S11310F029B9BB27A52F942F832F80BD25C0C801F4
S1131100A0E0B0E0880F991FAA1FBB1F880F991F8A
S1131110AA1FBB1F880F991FAA1FBB1F880F991FE7
S1131120AA1FBB1F9C01AD0121503109410951097E
S113113060E072E18AE790E00E94C30829B9BB2706
S1131140A52F942F832F80BDDF91CF911F910F91F5
S113115008955D9BFECF8CB90895CF93DF93EC0186
S11311608881882331F021960E94A90889918111F0
S1131170FBCF80E00E94A908DF91CF9108955F9B87
S1131180FECF8CB10895A1E21A2EAA1BBB1BFD0150
S11311900DC0AA1FBB1FEE1FFF1FA217B307E40752
S11311A0F50720F0A21BB30BE40BF50B661F771FAA
S11311B0881F991F1A9469F760957095809590958A
S11311C09B01AC01BD01CF010895FB01DC018D91B0
S11311D0019080190110D9F3990B0895F894FFCF69
S11311E0456E7465722050617373776F7264004347
S11311F0686F6F7365206F7074696F6E00422D4362
S11312006C6F7365206C6F636B657200432D43686C
S1131210616E6765207061737300656E746572201A
S11312206E65770070617373776F7264004E6F74CC
S1131230207468652073616D65005472792061675C
S113124061696E0070617373776F726420636861A3
S11312506E6765640077656C636F6D6500412D4F43
S113126070656E20646F6F7200422D436C6F7365FE
S1131270204C6F636B6572004F70656E696E6720FA
S1131280646F6F7200436C6F73696E6720646F6F75
S11312907200456E7465722076616C6964004F70EB
S11312A074696F6E00456E7465722046697273745A
S11312B00057726F6E67007761726E696E670054D3
S10F12C06F2064697361626C65002A0091
S9030000FC
