S01B000042616E6B5F4C6F636B65725F436F6E74726F6C2E737265638E
S11300000C943E000C945B000C945B000C945B001D
S11300100C945B000C945B000C945B000C945B00F0
S11300200C945B000C945B000C945B000C945B00E0
S11300300C945B000C945B000C945B000C945B00D0
S11300400C945B000C945B000C945B000C945B00C0
S11300500C945B00AE03BC03CC03DC03EC03FC0395
S11300600C0416049E04AB04B804C504D204DF04D3
S1130070EC04F9040605130520052D0511241FBE03
S1130080CFE5D8E0DEBFCDBF10E0A0E6B0E0E2ED02
S1130090F2E102C005900D92A236B107D9F720E033
S11300A0A2E6B0E001C01D92AA36B207E1F70E94B1
S11300B0B2020C9467090C940000811106C0262F2B
S11300C041E067E083E40E94A4010895811105C022
S11300D0462F67E083E40E94C40008951F93CF93E2
S11300E0DF93CDB7DEB728970FB6F894DEBF0FBE07
S11300F0CDBFCE01019624E0FC0111922A95E9F7C7
S11301000E942D038DE090E00E94AA0280359105A3
S1130110B1F4CE0101960E9430038130A1F011E0C8
S113012007C01F5F133021F461E080E00E94660085
S1130130CE0101960E943003813099F704C0CE01AC
S113014001960E94620360E080E00E9466000E94C3
S11301506F07823439F0833441F08134C1F70E944F
S1130160B501F5CF0E94BE0105C0CE0105960E94DF
S11301706203EDCF28960FB6F894DEBF0FBECDBF55
S1130180DF91CF911F910895823419F118F48134CD
S113019039F008958334B1F1843409F44CC00895DE
S11301A0413059F42BB381E090E002C0880F991FCD
S11301B06A95E2F7822B8BBB08952BB381E090E024
S11301C002C0880F991F6A95E2F7809582238BBB42
S11301D00895413059F428B381E090E002C0880FBB
S11301E0991F6A95E2F7822B88BB089528B381E0B2
S11301F090E002C0880F991F6A95E2F780958223E8
S113020088BB0895413059F425B381E090E002C0E1
S1130210880F991F6A95E2F7822B85BB089525B351
S113022081E090E002C0880F991F6A95E2F78095FB
S1130230822385BB0895413059F422B381E090E0D4
S113024002C0880F991F6A95E2F7822B82BB08953A
S113025022B381E090E002C0880F991F6A95E2F70B
S11302608095822382BB0895823419F118F4813475
S113027039F008958334B1F1843409F44CC00895FD
S1130280413059F42AB381E090E002C0880F991FED
S11302906A95E2F7822B8ABB08952AB381E090E045
S11302A002C0880F991F6A95E2F7809582238ABB62
S11302B00895413059F427B381E090E002C0880FDB
S11302C0991F6A95E2F7822B87BB089527B381E0D3
S11302D090E002C0880F991F6A95E2F78095822307
S11302E087BB0895413059F424B381E090E002C003
S11302F0880F991F6A95E2F7822B84BB089524B373
S113030081E090E002C0880F991F6A95E2F780951A
S1130310822384BB0895413059F421B381E090E0F5
S113032002C0880F991F6A95E2F7822B81BB08955A
S113033021B381E090E002C0880F991F6A95E2F72B
S11303408095822381BB08951F93CF93DF93C82F99
S1130350D62F122F0E943401412F6D2F8C2F0E9413
S1130360C400DF91CF911F91089580E00E94A00303
S113037060E08CED95E00E945605089580E00E94AF
S1130380A00360E088EE93E00E945605089580E0A3
S11303900E9490030E94BE0108951F93CF93DF93A0
S11303A0182FD62FC42FE0E0F0E081E0858382E0AF
S11303B08083128213821482118280E090E00E9472
S11303C09D05113011F090EA01C092EAD13011F08C
S11303D080E001C084E0892BC13011F090E001C0BD
S11303E098E0892B80936200DF91CF911F9108954B
S11303F01F93CF93DF93EC01162F0E94020660E057
S1130400809162000E941F06812F0E942A060E948A
S11304100F0661E0809162000E941F060E941B0685
S113042088830E941806DF91CF911F910895CF937E
S1130430DF93D82FC62F0E94020660E080916200ED
S11304400E941F068C2F0E942A068D2F0E942A06C6
S11304500E9418066C2F70E070936500609364002E
S1130460DF91CF9108958F929F92AF92BF92CF92D6
S1130470DF92EF92FF921F93CF93DF931F92CDB73A
S1130480DEB74B01A42EB12CA114B104C1F07B0141
S11304906B01CA0CDB1C182F612FCE0101960E9440
S11304A0F8018981F70181937F018FE39CE901972A
S11304B0F1F700C000001F5FEC15FD0569F7F401BA
S11304C0EA0DFB1D1082B0926500A09264000F90AB
S11304D0DF91CF911F91FF90EF90DF90CF90BF906D
S11304E0AF909F908F900895EF92FF920F931F9378
S11304F0CF93DF93D82FFB0180818823C9F08B0130
S11305000F5F1F4FCD2FE12CF12C6C2F0E9417028F
S11305108FE39CE90197F1F700C000009FEFE91A0F
S1130520F90AF80181918F01CF5F8111EECF02C0EA
S1130530E12CF12C6D2F6E0D80E00E941702F092D9
S11305406500E0926400DF91CF911F910F91FF90BD
S1130550EF900895E199FECF9FBB8EBBE09A8DB3D7
S113056090E00895CF93DF93CDB7DEB72A970FB607
S1130570F894DEBF0FBECDBF0AE0CE010196FC01A8
S1130580202F11922A95E9F723E02D8312E0198791
S113059020E835E23B832A8321E028870E945F0616
S11305A0E0E0F0E001831083128280E090E00E949A
S11305B0700483E00E94A40382E390E00E943C055F
S11305C080E00E9490030E94C70160E080E00E94E6
S11305D05D0040E061E081E00E94CD010E946E0078
S11305E0FDCF8F929F92AF92BF92CF92DF92EF9204
S11305F0FF92CF93DF93EB012097D1F00F2EC12C04
S1130600D12CF0E8EF2EFFE3FF2EF02D4C01A12CAE
S1130610B12CC501B4010E941A089B01AC01C701A9
S1130620B6010E94A8086B017C01219791F708C0CC
S11306300F2EC12CD12CF0E8EF2EFFE3FF2EF02D6E
S1130640C701B601DF91CF91FF90EF90DF90CF907B
S1130650BF90AF909F908F9008950E947307089564
S1130660EF92FF920F931F93CF93DF9300D000D0AC
S1130670CDB7DEB77C018E010F5F1F4F84E0F80118
S113068011928A95E9F744E0B80180E00E943302B0
S1130690B701C8010E945709892B29F481E30E94FC
S11306A06B0781E004C080E30E946B0780E00F9039
S11306B00F900F900F90DF91CF911F910F91FF90AA
S11306C0EF900895CF93DF9300D000D0CDB7DEB77D
S11306D0BC01CE0101960E946009BE016F5F7F4F8D
S11306E080E00E9474020F900F900F900F90DF91A2
S11306F0CF910895811105C040E065E084E40E9433
S1130700C400089581110BC0613031F441E065E00B
S113071084E40E94C400089580E00E947A0308954E
S1130720CF93C82F811106C020E041E065E084E446
S11307300E94A40160E08C2F0E948203CF9108954F
S113074061E00E948203089590E08830910508F0EA
S113075076C0FC01E65DFF4F0C9437098EB58E7FA1
S11307608EBD8EB58D7F8EBD8EB58B7F8EBD109266
S113077061001092600008958EB581608EBD8EB5C3
S11307808D7F8EBD8EB58B7F8EBD81E090E0909382
S113079061008093600008958EB58E7F8EBD8EB506
S11307A082608EBD8EB58B7F8EBD88E090E0909385
S11307B061008093600008958EB581608EBD8EB512
S11307C082608EBD8EB58B7F8EBD80E490E0909369
S11307D061008093600008958EB58E7F8EBD8EB5C6
S11307E08D7F8EBD8EB584608EBD80E091E0909348
S11307F061008093600008958EB581608EBD8EB5D2
S11308008D7F8EBD8EB584608EBD80E094E0909324
S113081061008093600008958EB58E7F8EBD8EB585
S113082082608EBD8EB584608EBD08958EB5816064
S11308308EBD8EB582608EBD8EB584608EBD0895EA
S11308408130C1F028F0823039F18330B9F1089554
S1130850611107C08FB58F778FBD8FB58F7B8FBD2B
S113086008956130E1F58FB58F7D8FBD8FB58F7E93
S11308708FBD0895611107C08FB58F778FBD8FB578
S113088080648FBD0895613051F58FB58F7D8FBD24
S11308908FB580618FBD0895611107C08FB58068E1
S11308A08FBD8FB58F7B8FBD08956130C1F48FB537
S11308B080628FBD8FB58F7E8FBD0895611107C093
S11308C08FB580688FBD8FB580648FBD089561300A
S11308D031F48FB580628FBD8FB580618FBD08956F
S11308E0CF93DF93EC016A8188810E9420048A817E
S11308F0882319F0813061F015C020E041E065E003
S113090083E40E94A4018B819C819BBD8ABD0AC0A3
S113091020E041E064E083E40E94A4018D819E8193
S11309209BBD8ABDE9818E2F90E08C30910508F043
S1130930A0C0FC01EE5CFF4F0C9437098FB58160B9
S11309408FBD8FB58D7F8FBD8EB5877F8EBD8EB5E4
S11309508F7E8EBD8EC08FB58E7F8FBD8FB582602A
S11309608FBD8EB5877F8EBD8EB58F7E8EBD81C0C7
S11309708FB581608FBD8FB582608FBD8EB5877F47
S11309808EBD8EB58F7E8EBD74C08FB581608FBDD8
S11309908FB58D7F8FBD8EB588608EBD8EB58F7EF1
S11309A08EBD67C08FB58E7F8FBD8FB582608FBDC2
S11309B08EB588608EBD8EB58F7E8EBD5AC08FB5C4
S11309C081608FBD8FB582608FBD8EB588608EBD0E
S11309D08EB58F7E8EBD4DC08FB58E7F8FBD8FB58A
S11309E08D7F8FBD8EB5877F8EBD8EB580618EBDA8
S11309F040C08FB581608FBD8FB58D7F8FBD8EB5A3
S1130A00877F8EBD8EB580618EBD33C08FB58E7FDE
S1130A108FBD8FB582608FBD8EB5877F8EBD8EB53D
S1130A2080618EBD26C08FB581608FBD8FB5826019
S1130A308FBD8EB5877F8EBD8EB580618EBD19C08A
S1130A408FB58E7F8FBD8FB582608FBD8EB5886068
S1130A508EBD8EB580618EBD0CC08FB581608FBD9B
S1130A608FB582608FBD8FB588608FBD8FB5806173
S1130A708FBDDF91CF910895409160005091610046
S1130A80440F551F9C01429FC001439F900D529FEC
S1130A90900D11249C0140E050E060E074E284EF8A
S1130AA090E00E94150937BD26BD0895CF92DF92CC
S1130AB0EF92FF92CF93C62F6C01E12CF12CA09101
S1130AC06000B091610020E432E44FE050E00E9405
S1130AD03D0920E034E244EF50E00E941509C701CB
S1130AE0B6010E9415092093660030936700409375
S1130AF0680050936900CC2319F0C13021F005C07F
S1130B003BBD2ABD02C039BD28BDCF91FF90EF90F7
S1130B10DF90CF90089584E886BF06B607FEFDCF28
S1130B200895882331F0813039F486B7816086BF17
S1130B30089586B78E7F86BF0895CF93DF93EC0127
S1130B4092B18881892B82B98981813061F028F042
S1130B50823079F0833099F017C00898099881E0C1
S1130B608093630011C0089A099884E0809363001D
S1130B700BC00898099A80E18093630005C0089A25
S1130B80099A80E4809363008B810E9491058A8195
S1130B90882319F0813019F003C0109801C0109A0D
S1130BA08C81882319F0813091F01FC0609163001B
S1130BB070E084E090E00E94F10220E030E040E048
S1130BC052E40E94A8080E94EB0760B90EC060912D
S1130BD0630070E084E090E00E94F1029B01AC01AC
S1130BE00E947F070E94EB0760B98D81882329F05A
S1130BF0813029F484E486BF02C084E086BFDF919B
S1130C00CF91089516BE84EA86BF06B607FEFDCFCF
S1130C1091B1987F81E0983009F080E008950E94B6
S1130C20020691B1987F81E0903109F080E0089547
S1130C3084E986BF08950E948B0583B10895860FC9
S1130C4083B90E948B0591B1987F81E0983109F0B6
S1130C5080E0089583B90E948B0591B1987F81E06B
S1130C60983209F080E00895823091F028F48823C6
S1130C7049F0813051F00895843071F058F0853096
S1130C8069F00895579856980895579A569A089572
S1130C90579A089557980895569A0895569808951E
S1130CA0813039F018F0823039F00895539A54980D
S1130CB00895549A53980895549A539A08950F9303
S1130CC01F93CF93DF93EC0109811A8180B580686B
S1130CD080BD8881882319F0813029F008C080B54F
S1130CE08F7B80BD07C080B5806480BD03C080B5A4
S1130CF08F7B80BD8C818230D9F028F4882341F029
S1130D00813071F02DC08330D9F0843009F128C0CE
S1130D1080B58D7F80BD80B58B7F80BD529827C004
S1130D2080B5826080BD80B58B7F80BD52981FC026
S1130D3080B58D7F80BD80B5846080BD529817C01A
S1130D4080B5826080BD80B5846080BD52980FC03C
S1130D5080B5826080BD80B5846080BD529A07C032
S1130D6080B5826080BD80B5846080BD52988E81DC
S1130D70882319F0813029F007C080B5877F80BDB2
S1130D8003C080B5886080BD8D81813059F018F032
S1130D90823079F014C080B58F7E80BD80B58F7DA0
S1130DA080BD0DC080B58F7E80BD80B5806280BD62
S1130DB006C080B5806180BD80B5806280BD8F81B2
S1130DC0882319F0813029F007C080B58E7F80BD5B
S1130DD003C080B5816080BD88850E9450068B81E8
S1130DE00E9434068985882319F0813039F149C07D
S1130DF0C801A0E0B0E0880F991FAA1FBB1F880F8D
S1130E00991FAA1FBB1F880F991FAA1FBB1F880FFA
S1130E10991FAA1FBB1F9C01AD0121503109410933
S1130E20510960E072E18AE790E00E94150929B94E
S1130E30BB27A52F942F832F80BD48C0599AC80182
S1130E40A0E0B0E0880F991FAA1FBB1F880F991F4D
S1130E50AA1FBB1F880F991FAA1FBB1F9C01AD01AE
S1130E60215031094109510960E072E18AE790E0BB
S1130E700E94150929B9BB27A52F942F832F80BD64
S1130E8025C0C801A0E0B0E0880F991FAA1FBB1FAE
S1130E90880F991FAA1FBB1F880F991FAA1FBB1F6A
S1130EA0880F991FAA1FBB1F9C01AD012150310956
S1130EB04109510960E072E18AE790E00E94150956
S1130EC029B9BB27A52F942F832F80BDDF91CF9104
S1130ED01F910F9108955D9BFECF8CB908955F9B80
S1130EE0FECF8CB10895CF93DF93EC010E946F077E
S1130EF089938111FBCFDF91CF9108955058BB277F
S1130F00AA270E9496070C946E080E94600838F085
S1130F100E94670820F039F49F3F19F426F40C94DA
S1130F205D080EF4E095E7FB0C945708E92F0E9446
S1130F307F0858F3BA17620773078407950720F0F0
S1130F4079F4A6F50C94A1080EF4E0950B2EBA2FB3
S1130F50A02D0B01B90190010C01CA01A0011124BB
S1130F60FF27591B99F0593F50F4503E68F11A1667
S1130F70F040A22F232F342F4427585FF3CF4695F8
S1130F8037952795A795F0405395C9F77EF41F161A
S1130F90BA0B620B730B840BBAF09150A1F0FF0FE4
S1130FA0BB1F661F771F881FC2F70EC0BA0F621FD0
S1130FB0731F841F48F4879577956795B795F795C0
S1130FC09E3F08F0B0CF9395880F08F09927EE0F55
S1130FD09795879508950E94870888F09F5798F001
S1130FE0B92F9927B751B0F0E1F0660F771F881F2A
S1130FF0991F1AF0BA95C9F714C0B13091F00E9444
S1131000A108B1E008950C94A108672F782F8827D0
S1131010B85F39F0B93FCCF3869577956795B3956A
S1131020D9F73EF490958095709561957F4F8F4FD9
S11310309F4F0895E89409C097FB3EF490958095DE
S1131040709561957F4F8F4F9F4F9923A9F0F92F8A
S113105096E9BB279395F695879577956795B79508
S1131060F111F8CFFAF4BB0F11F460FF1BC06F5FEE
S11310707F4F8F4F9F4F16C0882311F096E911C000
S1131080772321F09EE8872F762F05C0662371F021
S113109096E8862F70E060E02AF09A95660F771F35
S11310A0881FDAF7880F9695879597F9089597F929
S11310B09F6780E870E060E008959FEF80EC0895FA
S11310C000240A9416161706180609060895002423
S11310D00A9412161306140605060895092E03949D
S11310E0000C11F4882352F0BB0F40F4BF2B11F411
S11310F060FF04C06F5F7F4F8F4F9F4F089557FD70
S11311009058440F551F59F05F3F71F04795880F71
S113111097FB991F61F09F3F79F087950895121608
S113112013061406551FF2CF4695F1DF08C01616B4
S113113017061806991FF1CF869571056105089465
S11311400895E894BB2766277727CB0197F908957C
S11311500E94BB080C946E080E94600838F00E943C
S1131160670820F0952311F00C9457080C945D083F
S113117011240C94A2080E947F0870F3959FC1F378
S1131180950F50E0551F629FF001729FBB27F00D31
S1131190B11D639FAA27F00DB11DAA1F649F662786
S11311A0B00DA11D661F829F2227B00DA11D621FD5
S11311B0739FB00DA11D621F839FA00D611D221F8F
S11311C0749F3327A00D611D231F849F600D211D73
S11311D0822F762F6A2F11249F5750409AF0F1F0F6
S11311E088234AF0EE0FFF1FBB1F661F771F881F5F
S11311F091505040A9F79E3F510580F00C94570838
S11312000C94A2085F3FE4F3983ED4F38695779557
S11312106795B795F795E7959F5FC1F7FE2B880F04
S1131220911D9695879597F90895A1E21A2EAA1B08
S1131230BB1BFD010DC0AA1FBB1FEE1FFF1FA21782
S1131240B307E407F50720F0A21BB30BE40BF50B7F
S1131250661F771F881F991F1A9469F76095709508
S1131260809590959B01AC01BD01CF010895EE0FCF
S1131270FF1F0590F491E02D09940E944809A59F51
S1131280900DB49F900DA49F800D911D112408957D
S1131290A29FB001B39FC001A39F700D811D1124B3
S11312A0911DB29F700D811D1124911D0895FB01A4
S11312B0DC018D91019080190110D9F3990B0895E7
S11312C0FB01DC0101900D920020E1F70895F894F0
S10512D0FFCF4A
S10512D2010015
S9030000FC
